{
  "_format": "hh-sol-artifact-1",
  "contractName": "Rewards",
  "sourceName": "contracts/Rewards.sol",
  "abi": [
    {
      "inputs": [],
      "stateMutability": "nonpayable",
      "type": "constructor"
    },
    {
      "inputs": [
        {
          "internalType": "address",
          "name": "recipient",
          "type": "address"
        },
        {
          "internalType": "uint256",
          "name": "amount",
          "type": "uint256"
        }
      ],
      "name": "awardReward",
      "outputs": [],
      "stateMutability": "nonpayable",
      "type": "function"
    },
    {
      "inputs": [
        {
          "internalType": "address",
          "name": "account",
          "type": "address"
        }
      ],
      "name": "getRewardBalance",
      "outputs": [
        {
          "internalType": "uint256",
          "name": "",
          "type": "uint256"
        }
      ],
      "stateMutability": "view",
      "type": "function"
    },
    {
      "inputs": [],
      "name": "owner",
      "outputs": [
        {
          "internalType": "address",
          "name": "",
          "type": "address"
        }
      ],
      "stateMutability": "view",
      "type": "function"
    },
    {
      "inputs": [
        {
          "internalType": "address",
          "name": "",
          "type": "address"
        }
      ],
      "name": "rewards",
      "outputs": [
        {
          "internalType": "uint256",
          "name": "",
          "type": "uint256"
        }
      ],
      "stateMutability": "view",
      "type": "function"
    }
  ],
  "bytecode": "0x608060405234801561001057600080fd5b50336000806101000a81548173ffffffffffffffffffffffffffffffffffffffff021916908373ffffffffffffffffffffffffffffffffffffffff1602179055506104c8806100606000396000f3fe608060405234801561001057600080fd5b506004361061004c5760003560e01c80630700037d1461005157806345f9af1a146100815780638da5cb5b1461009d578063d5a849e9146100bb575b600080fd5b61006b600480360381019061006691906102bb565b6100eb565b6040516100789190610301565b60405180910390f35b61009b60048036038101906100969190610348565b610103565b005b6100a56101eb565b6040516100b29190610397565b60405180910390f35b6100d560048036038101906100d091906102bb565b61020f565b6040516100e29190610301565b60405180910390f35b60016020528060005260406000206000915090505481565b60008054906101000a900473ffffffffffffffffffffffffffffffffffffffff1673ffffffffffffffffffffffffffffffffffffffff163373ffffffffffffffffffffffffffffffffffffffff1614610191576040517f08c379a00000000000000000000000000000000000000000000000000000000081526004016101889061040f565b60405180910390fd5b80600160008473ffffffffffffffffffffffffffffffffffffffff1673ffffffffffffffffffffffffffffffffffffffff16815260200190815260200160002060008282546101e0919061045e565b925050819055505050565b60008054906101000a900473ffffffffffffffffffffffffffffffffffffffff1681565b6000600160008373ffffffffffffffffffffffffffffffffffffffff1673ffffffffffffffffffffffffffffffffffffffff168152602001908152602001600020549050919050565b600080fd5b600073ffffffffffffffffffffffffffffffffffffffff82169050919050565b60006102888261025d565b9050919050565b6102988161027d565b81146102a357600080fd5b50565b6000813590506102b58161028f565b92915050565b6000602082840312156102d1576102d0610258565b5b60006102df848285016102a6565b91505092915050565b6000819050919050565b6102fb816102e8565b82525050565b600060208201905061031660008301846102f2565b92915050565b610325816102e8565b811461033057600080fd5b50565b6000813590506103428161031c565b92915050565b6000806040838503121561035f5761035e610258565b5b600061036d858286016102a6565b925050602061037e85828601610333565b9150509250929050565b6103918161027d565b82525050565b60006020820190506103ac6000830184610388565b92915050565b600082825260208201905092915050565b7f4f6e6c79206f776e65722063616e206177617264207265776172647300000000600082015250565b60006103f9601c836103b2565b9150610404826103c3565b602082019050919050565b60006020820190508181036000830152610428816103ec565b9050919050565b7f4e487b7100000000000000000000000000000000000000000000000000000000600052601160045260246000fd5b6000610469826102e8565b9150610474836102e8565b925082820190508082111561048c5761048b61042f565b5b9291505056fea2646970667358221220c9265f3d432baf7ab6e064ea156387c65a6030b174c53ef6dbdcb73dabacf62564736f6c63430008180033",
  "linkReferences": {},
  "deployedLinkReferences": {}
}